:100000000C94CB010C94FC010C94FC010C94FC01AD
:100010000C94FC010C94FC010C94FC010C94FC016C
:100020000C94FC010C94FC010C94FC010C94FC015C
:100030000C94FC010C94FC010C94FC010C94FC014C
:100040000C94FC010C94FC010C94FC010C94FC013C
:100050000C94FC010C94FC010C94FC010C942F16E4
:100060000C94FC010C94A3160C9479160C94FC01CE
:100070000C94FC010C94FC010C94FC010C94FC010C
:100080000C94FC010C94FC010C94FC010C94FC01FC
:100090000C94FC010C94FC010C94FC010C94FC01EC
:1000A0000C94FC010C94FC010C94FC010C94FC01DC
:1000B0000C94FC010C94FC010C94FC010C94FC01CC
:1000C0000C94FC010C94FC010C94FC010C94FC01BC
:1000D0000C94FC010C94FC010C94FC010C94FC01AC
:1000E0000C94FC010C94A5040C94EA150C946F027A
:1000F0000C9463020C948A020C940F030C9426094E
:100100000C9426060C94A1150C945A060C94980293
:100110000C94E0040C94A8040C941B040C94C405E7
:100120000C9478040C9407040C94D0020C947B0675
:100130000C945F150C94A9060C9459150C941A0490
:100140000C948B050C944C020C9472020C943103A9
:100150000C941C040C9408150C9413040C943E0687
:100160000C940F050C944F060C94A2020C942A09CF
:100170000C947C020C9490020C9431060C9417049D
:100180000C9467020C94F8090C945B150C9486028D
:100190000C9444060C9467060C9482020C94600440
:1001A0000C949C060C94D7050C945D150C945F057B
:1001B0000C94FE050C9423030C94EF050C9494020C
:1001C0000C944A040C94B9080C9472060C94D30253
:1001D0000C9485060C94D9160C9412050C943C05CD
:1001E0000C94EB090C948B060C9411060C94780279
:1001F0000C9400030C9492040C9489090C9414043C
:100200000C940C050C9408040C945D040C946B0283
:100210000C9441060C949E020C94BD040C94300482
:100220000C9401070C94DA050C9469030C94A6064F
:100230000C9451020C94CD020C9493060C94B505C9
:100240000C9463040C94E6090C9488060C94B60391
:10025000FF0800000209000005090000080903006A
:100260000D09030012090000150900001809090012
:1002700021090000240909002D090900380900009E
:100280003B09000044090000470903004E09000033
:10029000510900005A0900005D09030062090000CD
:1002A0006509090050021500000022002500280001
:1002B0002B002E003100340002010000050108016E
:1002C0000B010505050507050808080802020202DA
:1002D0000A0A0808040404040101010101010101E2
:1002E0000303030303030303040707070C0C0C0CAD
:1002F0000C0C0C0C02020202060606060606060696
:100300000B0B0B0B0B0B0B0B010210202008081022
:100310002040102040800201020108040201010275
:10032000040810204080804020100804020180044E
:1003300002018040201008040201080402010102A9
:1003400004081020408001020408102040800000B2
:100350000A0B02090C0D0E0807030401000000003F
:10036000000000000000000000000000000000008D
:10037000000000000000000000001211100000004A
:10038000000000000000000000000000000000006D
:1003900000000000D91611241FBECFEFDFEFDEBF33
:1003A000CDBF00E00CBF15E0A0E0B2E0E0E8FFE365
:1003B00000E00BBF02C007900D92A034B107D9F73F
:1003C00029E0A0E4B5E001C01D92A139B207E1F730
:1003D00011E0CBECD1E000E006C021970109802FAD
:1003E000FE010E94C81DCA3CD10780E00807A9F79A
:1003F0000E9402180C94BE1F0C94000040915C08EF
:1004000050915D08ECE5F7E081E090E04230510565
:1004100030F410925D0810925C080895C9012181A2
:1004200021939C012F5F3F4F42175307B9F79093D9
:100430005D0880935C080895282F30E0F901E25BA5
:10044000FC4F9491F901E85FFC4F44912E533D4FCE
:10045000F9012491222309F435C0992311F1915017
:100460009231F8F4E92FF0E08827E65CFD4F8F4FDA
:100470000C94C81D6B026F024C02630267025102AA
:10048000720278027C02820286028A029002940240
:10049000510298029E02A202809180008F77809381
:1004A0008000E22FF0E0EE0FFF1FE855FD4FA59111
:1004B000B4918FB7F894EC91611148C040954E23E8
:1004C0004C938FBF0895809180008F7DE8CF8091FD
:1004D0008000877FE4CF84B58F7784BDE2CF84B579
:1004E0008F7DFBCF8091B0008F778093B000D9CF04
:1004F0008091B0008F7DF9CF809190008F778093AD
:100500009000CFCF809190008F7DF9CF80919000A7
:10051000877FF5CF8091A0008F778093A000C1CF17
:100520008091A0008F7DF9CF8091A000877FF5CFCB
:10053000809120018F7780932001B3CF809120019B
:100540008F7DF9CF80912001877FF5CF4E2BB8CFDB
:100550003FB7F8948091580790915907A0915A0796
:10056000B0915B0726B5A89B05C02F3F19F00196F7
:10057000A11DB11D3FBFBA2FA92F982F8827BC01FD
:10058000CD01620F711D811D911D42E0660F771F25
:10059000881F991F4A95D1F7089581E090E008954A
:1005A00086579F4F0895AF92BF92CF92DF92EF92FE
:1005B000FF920F931F93CF93DF936C017B018B010D
:1005C000040F151FEB015E01AE18BF08C017D1075D
:1005D00059F06991D601ED91FC910190F081E02DE7
:1005E000C6011995892B79F7C501DF91CF911F912C
:1005F0000F91FF90EF90DF90CF90BF90AF90089554
:10060000FC01538D448D252F30E0842F90E0821B18
:10061000930B541710F0CF96089501970895FC019D
:10062000918D828D981761F0A28DAE0FBF2FB11DF5
:100630005D968C91928D9F5F9F73928F90E008954D
:100640008FEF9FEF0895FC01918D828D981731F007
:10065000828DE80FF11D858D90E008958FEF9FEF5B
:100660000895FC01918D228D892F90E0805C9F4F31
:10067000821B91098F73992708958EE598E00E9457
:10068000310321E0892B09F420E0822F0895FC0139
:10069000A48DA80FB92FB11DA35ABF4F2C91848DE3
:1006A00090E001968F739927848FA689B7892C9340
:1006B000A089B1898C91837080648C93938D848D93
:1006C000981306C00288F389E02D80818F7D808396
:1006D0000895EF92FF920F931F93CF93DF93EC0156
:1006E00081E0888F9B8D8C8D98131AC0E889F989D9
:1006F000808185FF15C09FB7F894EE89FF896083DC
:10070000E889F98980818370806480839FBF81E05C
:1007100090E0DF91CF911F910F91FF90EF9008959E
:10072000F62E0B8D10E00F5F1F4F0F731127E02E79
:100730008C8D8E110CC00FB607FCFACFE889F989B1
:10074000808185FFF5CFCE010E944703F1CFEB8D6D
:10075000EC0FFD2FF11DE35AFF4FF0829FB7F89485
:100760000B8FEA89FB8980818062CFCFCF93DF93A3
:10077000EC01888D8823B9F0AA89BB89E889F989B9
:100780008C9185FD03C0808186FD0DC00FB607FCEE
:10079000F7CF8C9185FFF2CF808185FFEDCFCE0121
:1007A0000E944703E9CFDF91CF91089580E090E068
:1007B000892B29F00E943D0381110E94000080E0F6
:1007C00090E0892B49F080E090E0892B29F00E948D
:1007D000000081110E94000080E090E0892B49F028
:1007E00080E090E0892B29F00E94000081110E9496
:1007F000000080E090E0892B49F080E090E0892BB8
:1008000029F00E94000081110C94000008950895C1
:10081000FB011082118212821382FA01108211826E
:10082000128213820895089590E080E0089590E088
:1008300080E008950895089587E095E00895282FB1
:1008400086EA92E0A0E0BB2730E0220F331F820F40
:10085000931FA11DB11DABBFFC0187919691089517
:10086000CF93DF9300D01F92CDB7DEB7FB0140815D
:10087000518162817381FC012481211104C0408374
:100880005183628373830F900F900F900F90DF91CD
:10089000CF910895FC018481882351F08581968150
:1008A000A781B085FB0180839183A283B3830895E0
:1008B00080819181A281B381F5CFFC0114820895DA
:1008C000FC0114820895CF93DF93FC01EB01888132
:1008D0009981AA81BB8121E0248385839683A783A4
:1008E000B08780839183A283B383DF91CF910895F2
:1008F000CF93DF9300D01F92CDB7DEB7FB014081CD
:10090000518162817381FC012481211104C04083E3
:100910005183628373830F900F900F900F90DF913C
:10092000CF910895FC018481882351F085819681BF
:10093000A781B085FB0180839183A283B38308954F
:1009400080819181A281B381F5CFFC011482089549
:10095000CF93DF93FC01EB0188819981AA81BB8150
:1009600021E0248385839683A783B0878083918346
:10097000A283B383DF91CF910895FC01DB018085D1
:1009800081111DC07C9111966C91119712965C910A
:10099000129713964C91139714963C9114971596B1
:1009A0002C91159716969C91169717968C9170839B
:1009B0006183528343833483258396838783089599
:1009C000FC01DB0180858823F1F071856285538508
:1009D000448535852685978580897C9311966C930F
:1009E000119712965C93129713964C931397149643
:1009F0003C93149715962C93159716969C931697DF
:100A000017968C930895708161815281438134815E
:100A1000258196818781E1CFFC0110860895FC0134
:100A200010860895FC01DB017C9111966C91119761
:100A300012965C91129713964C91139714963C91D1
:100A4000149715962C91159716969C9116971796B4
:100A50008C91A1E0A087718762875387448735878F
:100A600026879787808B7083618352834383348387
:100A70002583968387830895FC01DB01808581119E
:100A80001DC07C9111966C91119712965C911297F2
:100A900013964C91139714963C91149715962C919C
:100AA000159716969C91169717968C917083618373
:100AB0005283438334832583968387830895FC017F
:100AC000DB0180858823F1F071856285538544853B
:100AD00035852685978580897C9311966C9311972F
:100AE00012965C93129713964C93139714963C931B
:100AF000149715962C93159716969C931697179600
:100B00008C93089570816181528143813481258164
:100B100096818781E1CFFC01DB017C9111966C917C
:100B2000119712965C91129713964C911397149605
:100B30003C91149715962C91159716969C911697A3
:100B400017968C91A1E0A0877187628753874487AD
:100B5000358726879787808B708361835283438391
:100B600034832583968387830895FC012481211192
:100B70000AC0FB014081518162817381FC01408385
:100B80005183628373830895FC018481882351F02B
:100B900085819681A781B085FB0180839183A283A3
:100BA000B383089580819181A281B381F5CFFC0147
:100BB00014820895CF93DF93FC01EB018881998122
:100BC000AA81BB8121E0248385839683A783B08794
:100BD00080839183A283B383DF91CF910895FC0139
:100BE000248121110AC0FB014081518162817381FE
:100BF000FC0140835183628373830895FC018481E7
:100C0000882351F085819681A781B085FB0180837F
:100C10009183A283B383089580819181A281B3815E
:100C2000F5CFCF93DF93FC01EB0188819981AA81F5
:100C3000BB8121E0248385839683A783B08780834B
:100C40009183A283B383DF91CF910895FC01228128
:100C5000211106C0FB0120813181FC0131832083F9
:100C60000895FC018281882331F083819481FB0106
:100C700091838083089580819181F9CFFC01128254
:100C80000895FC0112820895FC01DB018D919C9175
:100C900021E0228394838383918380830895FC01E0
:100CA0002281211106C0FB0120813181FC013183A9
:100CB00020830895FC018281882331F0838194810F
:100CC000FB0191838083089580819181F9CFFC019C
:100CD000DB018D919C9121E0228394838383918316
:100CE00080830895FC012181211104C0FB01208132
:100CF000FC0120830895FC018181882321F08281F9
:100D0000FB01808308958081FBCFFC01118208954F
:100D1000FC0111820895FC01DB018C9191E091832B
:100D2000828380830895FC012181211104C0FB018D
:100D30002081FC0120830895FC018181882321F01A
:100D40008281FB01808308958081FBCFFC011182A9
:100D50000895FC01DB018C9191E091838283808373
:100D60000895FC018181882311F08281089580819A
:100D70000895CF93DF93EC01CB010E94B1069981D6
:100D8000911101C08883CE01DF91CF910895AF9278
:100D9000BF92CF92DF92EF92FF921F93CF93DF9398
:100DA00000D0CDB7DEB77C016C0188E0C80ED11C45
:100DB000C6010E94B106182F570182E0A80EB11C8F
:100DC000C5010E94B10691E01927182319831A82E0
:100DD0001B82BE016F5F7F4FC70105960E94B90657
:100DE000B501C6010E94B9060F900F900F90DF91D8
:100DF000CF911F91FF90EF90DF90CF90BF90AF9079
:100E00000895AF92BF92CF92DF92EF92FF920F932D
:100E10001F93CF93DF93CDB7DEB72F970FB6F8941C
:100E2000DEBF0FBECDBF8C017C0184E2E80EF11C59
:100E3000C7010E94B10689831A821B82CE010196E6
:100E40000E94B106DD24D3948D258C831D821E82E1
:100E5000BE016C5F7F4FC80145960E94B9065801DC
:100E600092E0A90EB11CC5010E94B10689831A82C5
:100E70001B82CE0101960E94B1068D258C831D82B6
:100E80001E82BE016C5F7F4FC80148960E94B90662
:100E9000C80105960E94B106C82EC5010E94B10680
:100EA0008C218F8318861986C7010E94B106C82E2F
:100EB000CE0107960E94B1068C298A871B861C8664
:100EC000C80108960E94B10689831A821B82CE014E
:100ED00001960E94B1068D258C831D821E82CE0153
:100EE00004960E94B106C82ECE010A960E94B10651
:100EF0008C218D871E861F86BE01635F7F4FC701D1
:100F00000E94B906B701C801CB960E94B906C80174
:100F1000C9960E94C706F801EC5BFF4F81818111E1
:100F200001C0D082C801CE960E94B106F801E95BEB
:100F3000FF4F9181882309F4F5C0D8011D968C914B
:100F40001D97882309F4EAC01E962D913C91D80183
:100F5000A65BBF4F12968C911297811102C02D9300
:100F60003C93911102C081E08083CF010E94B106C1
:100F70008823D1F0F801E65BFF4F8281882309F4D2
:100F8000D5C063817481F80183A581110DC0072E3E
:100F9000000C880B990B0E941A1DD80197966D932F
:100FA0007D938D939C939A97B701C8018F5A9F4F59
:100FB0000E94B906C801815B9F4F0E94C706F801D5
:100FC000E65AFF4F8181811102C081E08083C80110
:100FD0008C5A9F4F0E94B106F801E35AFF4F91814E
:100FE000882309F4AAC0D80152968C91529788237D
:100FF00009F49FC053962D913C91D801A05ABF4F40
:1010000012968C911297811102C02D933C939111ED
:1010100002C081E08083CF010E94B1068823D1F015
:10102000F801E05AFF4F8281882309F48AC0638166
:101030007481F80184A981110DC0072E000C880B62
:10104000990B0E941A1DD801D0966D937D938D93B4
:101050009C93D397C7010E94B1067801B5E6EB0EC9
:10106000F11CF701D180882309F47AC0D8019B963E
:101070008C919B97882309F467C09C962D913D9194
:101080004D915C919F97D801D4968C91D4978823E9
:1010900009F460C0D5966D917D918D919C91D89702
:1010A0005801F8E6AF0EB11CD5011496EC91E11190
:1010B00007C00E94A61CF50160837183828393831D
:1010C000D11003C081E0D7018C93C7010E94B10603
:1010D000882399F0F801E859FF4F8481882309F4A7
:1010E00043C085819681A781B085F801278D2111A4
:1010F00004C0838F948FA58FB68F2F960FB6F89468
:10110000DEBF0FBECDBFDF91CF911F910F91FF903A
:10111000EF90DF90CF90BF90AF9008951B962D91E8
:101120003C9115CF911121CF10821FCF6081718129
:101130002ACF50962D913C9160CF91116CCF1082A7
:101140006ACF6081718175CFF80127A130A541A5D3
:1011500052A599CFF80160A971A982A993A9A0CF3E
:10116000D110B3CF1082B1CF80819181A281B381A0
:10117000BCCFCF93DF93EB010E94B1068883DF9150
:10118000CF9108950F931F93882339F060E070E0AA
:1011900080E090E01F910F91089506EA12E020E0B0
:1011A00033272BBFF8010791169160177107B0F430
:1011B00084EA92E0A0E0BB27ABBFFC018791969147
:1011C000660F771F660F771F680F791FFB01259148
:1011D0003491FB0132968491B901DBCF60E070E07D
:1011E000D8CF0E94C208672B59F0853148F499E0A6
:1011F000899FF0011124E25FFB4F808590E0089504
:1012000090E080E008950F931F93CF938A010E948E
:10121000C208E82FCB010097B1F0E531A0F429E036
:10122000E29FF0011124E25FFB4FC085CC2359F00F
:101230000480F581E02DB80119958C2F90E0CF91B5
:101240001F910F91089590E080E0F9CF9E5FFC011F
:1012500010820895EF92FF920F931F93CF93DF9325
:10126000CDB7DEB7CC5FD2400FB6F894DEBF0FBE6D
:10127000CDBFFB0130813F3708F03EE7FB01BE01E7
:101280006F5F7D4FDB0120E0231751F042815181D8
:101290004527542745274D935D932F5F3296F4CF12
:1012A00030E0DE01119650E040E07D014217530727
:1012B00048F4FB0101911191BF010D931D934F5F04
:1012C0005F4FF4CFD901AA0FBB1FAE0DBF1D1D92FA
:1012D0001C92DC01BE5F41E04C93C150DE4F39836C
:1012E0002883CF5FD140119680E092E0F701019012
:1012F0000D920197E1F7C450DD4F0FB6F894DEBFB1
:101300000FBECDBFDF91CF911F910F91FF90EF9056
:101310000895EF92FF920F931F93CF93DF93CDB772
:10132000DEB7CC5FD2400FB6F894DEBF0FBECDBFA4
:10133000FB0130813F3708F03EE7FB01BE016F5FE4
:101340007D4FDB0120E0231751F042815181452779
:10135000542745274D935D932F5F3296F4CF30E0AD
:10136000DE01119650E040E07D014217530748F43A
:10137000FB0101911191BF010D931D934F5F5F4FD1
:10138000F4CFA901440F551F4E0D5F1DFA011182C4
:101390001082C150DE4F39832883CF5FD14020E0D7
:1013A00032E0F701DC0101900D9221503040D9F775
:1013B000C450DD4F0FB6F894DEBF0FBECDBFDF9136
:1013C000CF911F910F91FF90EF9008958F5F9E4FE7
:1013D000FC0110820895FC012181211108C021E047
:1013E000FB013081311101C020E0FC012083089510
:1013F000FC0181E0DB019C91911101C080E091E052
:10140000918382838083089520915C07209530E04A
:10141000F901E25FFC4F90819095225F3D4FD90129
:101420008C91409144055091450542505109ECE59D
:10143000F7E031969F012C5537402417350770F49B
:1014400020819227292F30E0D901A25FBC4F9C91C7
:101450009827225F3D4FD9018C91EBCF089523E06F
:1014600030E03093450520934405ECE5F7E090919A
:101470002507908380588183628308950F931F937B
:10148000582F577001E010E020E030E004C0000F5A
:10149000111F221F331F5A95D2F723E09695879587
:1014A0002A95E1F79927E0912F07F09130076623FD
:1014B00021F0E0913507F0913607E80FF91F8081A0
:1014C000442329F0082B00831F910F910895009564
:1014D0000823F9CF2F923F924F925F926F927F92A3
:1014E0008F929F92AF92BF92CF92DF92EF92FF9234
:1014F0000F931F93CF93DF93CDB7DEB7C655D109B6
:101500000FB6F894DEBF0FBECDBF10E000E0F801CB
:10151000EE0FFF1FEB54F94F0190F081E02D309753
:1015200049F041E08081811101C040E060E0C801E4
:101530000E943E0A0F5F1F4F0833110541F7E090EC
:101540002607F090270725E736E02D963FAF2EAF10
:101550002D978701005C1F4FF701D9018D919D9157
:101560009D01009729F0DC018D919C9191838083EE
:1015700032960E171F0789F7D12CC12CF601EE0FFA
:10158000FF1FEB5FF94F0190F081E02D309749F09C
:1015900041E08081811101C040E061E0C6010E940C
:1015A0003E0ABFEFCB1ADB0AE8E3CE16D10431F7CF
:1015B00045EC55E0E0913207F09133079F01205C44
:1015C0003F4FDA018D919D91AD01009729F0DC012B
:1015D0008D919C91918380833296E217F30789F76E
:1015E000EDE9F5E02F96FFAFEEAF2F97F80128E673
:1015F000E20EF11C2DE935E0D9018D919D919D01FF
:10160000009729F0DC018D919C9191838083329623
:10161000EE16FF0689F7E5E7F5E06196FFAFEEAF5E
:101620006197E0912907F0912A079F01205B3F4FC6
:1016300005E715E0D8018D919D918D01009749F046
:10164000DC014D915D916D917C914083518362836A
:1016500073833496E217F30769F7EDE4F5E02B9610
:10166000FFAFEEAF2B97E0912C07F0912D079F0174
:1016700020563F4F8DE495E0DC01CD90DD90CD010B
:10168000C114D104F1F0D601EC901196FC901197A1
:1016900012960C91129713961C91139714967C91A5
:1016A000149715966C91159716965C911697179648
:1016B0004C91E082F18202831383748365835683A5
:1016C000478338962E173F07B9F680914B059091C6
:1016D0004C05DC01ED91FC910084F185E02D19951C
:1016E00018161906B4F580915C0890915D088F3F3B
:1016F000910509F070F580914B0590914C05DC0146
:10170000ED91FC910284F385E02D199520915C0800
:1017100030915D08A9014F5F5F4F50935D08409382
:101720005C08245A384FF90180832FB7F8948091D0
:10173000540790915507A0915607B09157072FBFB6
:101740008093400590934105A0934205B0934305D3
:10175000BCCF40915C0850915D084115510509F4DA
:1017600066C090915C0780912507981719F00E9438
:10177000FE01EFCF4230510508F461C180915D0751
:1017800064E0862E912CA12CB12C813409F168F4EF
:10179000813030F08730B8F08F50823008F419C1B2
:1017A00088248A94982C540113C0E9E08E2E912C41
:1017B000A12CB12C833461F008F42FC1843409F4D6
:1017C00016C1853469F7F8E08F2E912CA12CB12C2D
:1017D00061E086169606A104B10448F681149104CE
:1017E000A104B10429F084014815590508F02BC162
:1017F0002FB7F8948091540790915507A091560700
:10180000B09157072FBF409140055091410560911D
:10181000420570914305841B950BA60BB70B0997E6
:10182000A105B10520F010925D0810925C0840916E
:101830002F075091300730E020E0F901EE0FFF1F35
:10184000EB54F94F0190F081E02D309799F0D901D8
:1018500083E0B695A7958A95E1F7A40FB51F8C9103
:1018600090E0622F677002C0959587956A95E2F7C0
:10187000817080832F5F3F4F28333105F1F68091CF
:10188000260790912707BC01605C7F4FDC012D96F5
:10189000EEADFFAD2D97219131912D96FFAFEEAFBB
:1018A0002D972115310531F04D915C911197F9017A
:1018B0005183408312966A177B0749F7FB018859C9
:1018C0009F4F2F96AEADBFAD2F974D915D912F9647
:1018D000BFAFAEAF2F974115510529F0208131815F
:1018E000DA012D933C9332968E179F0751F7E091C2
:1018F0002907F0912A07CF01805B9F4F6196AEAD1B
:10190000BFAD61972D913D916196BFAFAEAF61972D
:101910002115310551F04081518162817381D901D6
:101920004D935D936D937C93139734968E179F0719
:1019300029F7E0912C07F0912D07CF0180569F4F9A
:101940002B96AEADBFAD2B97ED90FD902B96BFAF14
:10195000AEAF2B97E114F104F1F000811181728197
:1019600063815481458136812781D7010C9311967B
:101970001C93119712967C93129713966C9313975E
:1019800014965C93149715964C93159716963C9362
:10199000169717962C9338968E179F0789F6CA5A72
:1019A000DF4F0FB6F894DEBF0FBECDBFDF91CF91F2
:1019B0001F910F91FF90EF90DF90CF90BF90AF906D
:1019C0009F908F907F906F905F904F903F902F905F
:1019D00008954730510598F180906207912CB12C01
:1019E000A12CF9E08F0E911CA11CB11CF1CE44304A
:1019F000510528F120915E0730915F073227232798
:101A00003227A3E0B0E00E94D01D4B015C0126E02C
:101A1000820E911CA11CB11CDBCE4830510578F020
:101A20008090620790906307982489249824B12CB1
:101A3000A12C3AE0830E911CA11CB11CC9CE812CB3
:101A4000912C5401C5CED0905D078FEB8D0D853064
:101A500000F190924505809244050E94040AB50168
:101A6000A4014250510961097109445A584FDA01E1
:101A70002C91B1E08B1A9108A108B108F401E45A45
:101A8000F84F30812327322723272817390709F0F9
:101A90006ECE0250110910934505009344056090E5
:101AA0005E0770905F0776246724762480915E0736
:101AB0000091600710916107102701271027E0901F
:101AC0005F07F0906007FE24EF24FE24C0906107BA
:101AD000EFE0DE1609F4A9C5ED15D8F1F3E0DF1645
:101AE00009F492C1FD1568F021E0D21609F426C46C
:101AF00032E0D31609F4ACC461E070E08D2D90E0C3
:101B000025C045E0D41609F471C5D41608F429C5DA
:101B100056E0D512F1CF2091280780912B0790E055
:101B2000880F991FE22FF0E08E0F9F1F40912E0724
:101B3000B4E04B9FA0011124480F591F641675068D
:101B400008F455C062E070E086E090E00E942F0A41
:101B50005BC062E4D61609F408C76D15E8F070E1C1
:101B6000D71609F474C281E4D812C6CFD0925D07AB
:101B700081E080935E078EE780935F0780E00E949C
:101B80001F04909360078093610786E090E0909334
:101B900045058093440538C094E4D91609F46CC611
:101BA000D91608F4F7C5A5E4DA12A6CFD0925D07DE
:101BB0008EE780935E0781E2EFE0F5E09E012F5F04
:101BC0003F4FD90101900D928A95E1F7AFE5B7E05B
:101BD000A901CA01821B930BFA016191AF01FD01BA
:101BE000EC55F740662309F408C76D93F2CF6E16E3
:101BF0007F06D8F4660C771CE0912607F091270742
:101C0000E60DF71D118300838091440590914505F1
:101C100002968130914008F466C580915D0764E0CA
:101C200070E090E00E942F0A5EC568167906F0F514
:101C3000A80170E060E08091290790912A0760FC7C
:101C40001CC093012E1B3F0BF901EE0FFF1FEC7F11
:101C5000F370E80FF91F80819181A281B381AA27D7
:101C6000BB27BA0155274427842B952BA62BB72BCE
:101C700080839183A283B383C7CFE095F095E60D6F
:101C8000F71DEE0FFF1FEC7FF370E80FF91F0081C7
:101C900011812281338100271127042B152B262B3C
:101CA000372B0083118322833383AECF93012370BC
:101CB00033274801B12CA12CC12CD12C7601E09105
:101CC0002C07F0912D072115310549F5681A790A7D
:101CD000660C771C38EF632237E07322E60DF71DA0
:101CE0005080618072801381B481A581940140E0AD
:101CF00050E060E070E080E090E000E30E943E1E73
:101D000025292083632A6182742A7282152B13830A
:101D1000B62BB483A72BA5838683978375CF2130F9
:101D2000310541F54FEF641A740A681A790A660C96
:101D3000771C58EF652257E07522E60DF71D50809D
:101D4000618072801381B681A7819401A501B601DB
:101D5000C70100E20E943E1E522A5082632A61821D
:101D6000742A7282152B1383648375838B2B86836D
:101D70009A2BD3CF2230310529F562E0660E711C13
:101D8000681A790A660C771C78EF672277E0772269
:101D9000E60DF71D5080618074801581B681A781A2
:101DA0009401A501B601C70100E10E943E1E522A1E
:101DB0005082632A618242835383762A7482172B6E
:101DC0001583D4CFA3E06A0E711C681A790A660CD9
:101DD000771CB8EF6B22B7E07B22E60DF71D52812E
:101DE00043813481258196818781808291825A291D
:101DF00052834B2943833C2934832D2925839E29F3
:101E000096838F29878300CFC801019763E070E034
:101E10008D379105C8F44301800E911E209128074B
:101E2000E0912B07F0E0EE0FFF1FE20FF11D809114
:101E30002E0734E0839FC00111248E0F9F1F881648
:101E4000990628F062E070E083E090E07FCE000F1A
:101E5000111F0D5F1F4F10934505009344053CE58E
:101E6000E32E37E0F32ED7011196CD018C55974024
:101E70008017910710F41C92F7CF83E080935D07E1
:101E8000035000935E07C0902C07D0902D07A090C0
:101E90002907B0902A07A0912607B0912707BEAF67
:101EA000ADAFA22FB0E02796BFAFAEAF279783E0CC
:101EB00090E01C012E1A3F0A2D0140945094861484
:101EC000970409F4A1CE2796AEADBFAD27976A1649
:101ED0007B0660F49301220F331FADADBEAD2A0F18
:101EE0003B1FD9018C9111963C911CC06E167F0648
:101EF00080F560FC24C0C3012796AEADBFAD279727
:101F00008A1B9B0B880F991F8C7F93708A0D9B1DDA
:101F1000DC014D915D916D917C91AB016627772736
:101F2000842F352FD70113963C93139714968C93D7
:101F3000B2E0EB0EF11C2FEF621A720AC0CF9201D1
:101F4000260D371D220F331F2C7F33702A0D3B1DAA
:101F5000C8CF8301037011270115110521F58301F5
:101F60000E1B1F0B000F111F087F17700C0D1D1D7E
:101F7000D8012C9111963C91119712964C91129781
:101F800013965C91139714966C91149715967C9107
:101F9000159716968C91169717969C9100E30E94C0
:101FA000591E822FBFCF0130110511F50E1B1F0BDB
:101FB000060D171D000F111F087F17700C0D1D1D3A
:101FC000D8012C9111963C91119712964C91129731
:101FD00013965C91139714966C91149715967C91B7
:101FE000159716968C91169717969C9100E2D7CF6D
:101FF0000230110511F50E1B1F0B060D171D000FEA
:10200000111F087F17700C0D1D1DD8012C91119602
:102010003C91119712964C91129713965C911397DD
:1020200014966C91149715967C91159716968C9131
:10203000169717969C9100E1B2CF9101260D371D9E
:10204000220F331F287F37702C0D3D1D4ACFC8014A
:1020500001978B37910540F420916207C801880FE2
:10206000991F2817190629F063E070E080E190E0DD
:102070006DCDD301A00FB11F2796BFAFAEAF27978D
:1020800020902807A0912B07B0E0AA0FBB1F312C8E
:10209000A20DB31D80912E07E4E08E9FC001112494
:1020A0008A0F9B1F2796EEADFFAD2797E817F9071C
:1020B00018F062E070E0DACF86E090E0909345059A
:1020C00080934405D0925D0770925E0760925F072F
:1020D0001092600700936107E0902C07F0902D07A5
:1020E000E0912907F0912A072996FFAFEEAF2997D3
:1020F000E0912607F09127076396FFAFEEAF639755
:102100002CE5422E27E0522E83E090E0FC01EA1BF2
:10211000FB0B6596FFAFEEAF6597F101E095F0958B
:102120006796FFAFEEAF67972796EEADFFAD2797A7
:102130006E167F0609F4D7C2F20147818085142FFD
:10214000082F6214730490F4F301EE0FFF1F6396DF
:102150002EAD3FAD6397E20FF31F118300835FEF56
:10216000651A750A62E0460E511CDECF6A167B06C0
:10217000D8F5A80170E060E060FC1FC0F301E2192F
:10218000F309EE0FFF1FEC7FF37029968EAD9FAD24
:102190002997E80FF91F00811181228133812227BD
:1021A0003327BA0155274427402B512B622B732B21
:1021B0004083518362837383D2CF6796EEADFFADC8
:1021C0006797E60DF71DEE0FFF1FEC7FF370299662
:1021D0002EAD3FAD2997E20FF31F008111812281BF
:1021E000338100271127E0CFF301E370FF27980127
:1021F00050E040E060E070E0CB012DAF3EAF4FAF6C
:1022000021965FAF219722966FAF229723967FAFDB
:10221000239724968FAF249725969FAF25973097C5
:1022200039F5F301EA1BFB0BEE0FFF1FE87FF77098
:10223000EE0DFF1D9080A180B280C380D4801581F7
:1022400040E050E060E070E080E090E000E30E9459
:102250003E1E292920833A2931834B2942835C2958
:102260005383D62AD482172B15838683978377CFFF
:10227000E130F10549F5EA1BFB0BE60DF71DEE0F0A
:10228000FF1FE87FF770EE0DFF1D9080A180B280E8
:10229000C380D68017812DAD3EAD40E050E060E0B8
:1022A00070E080E090E000E20E943E1E2929208339
:1022B0003A2931834B294283C52AC38264837583BB
:1022C0008D298683912BD2CFE230F10531F5EA1BBF
:1022D000FB0BE60DF71DEE0FFF1FE87FF770EE0D0D
:1022E000FF1D9080A180B480C580D68017812DAD60
:1022F0003EAD40E050E060E070E080E090E000E162
:102300000E943E1E292920833A2931834283538328
:10231000B62AB482C72AC582D3CF6596EEADFFAD8B
:102320006597E60DF71DEE0FFF1FE87FF770EE0DC6
:10233000FF1D3DAD30834EAD418311CFC8010197E4
:10234000803D974028F063E070E081E090E0FECBB4
:1023500020913107C301800F911F62E070E02817C0
:10236000190698F3C80123E0969587952A95E1F719
:10237000980127703327232B91F4039690934505FA
:10238000809344058091440590914505ECE5F7E084
:102390008130A1E09A0728F064E070E0D6CF04967F
:1023A000EDCF31969F012C5537402817390710F48F
:1023B0001082F7CF91E090935D07835080935E0782
:1023C000A0902F07B090300770E060E020E0C12CB3
:1023D000D12C7601C39416012701022E04C0220CD1
:1023E000331C441C551C0A94D2F7FB0143E0F695BC
:1023F000E7954A95E1F7E15AF84F3081A301A3E050
:1024000056954795AA95E1F74F7155274A0D5B1DE3
:10241000DA014C9150E0B62DB77002C05595479542
:10242000BA95E2F7822D40FF0FC0832B80832F5F88
:10243000283009F420E0EFEF6E1A7E0A6F5F7F4FBD
:102440000617170741F6E0CB809538233083EFCF8E
:10245000C801019763E070E0803D974030F520911E
:102460003707C301800F911F62E070E0281719063B
:10247000E0F0C80133E0969587953A95E1F7980129
:1024800027703327232BA1F403969093450580935F
:1024900044058091440590914505ECE5F7E08130D5
:1024A00021E0920738F064E070E082E090E04ECBEB
:1024B0000496EBCF31969F012C55374028173907EA
:1024C00010F41082F7CF92E090935D0783508093D1
:1024D0005E07609135077091360750E040E0B12CFF
:1024E000C12CD12C7601C394160127010B2C04C0FA
:1024F000220C331C441C551C0A94D2F7FA0183E0C9
:10250000F695E7958A95E1F7E15AF84FA080930197
:1025100093E0369527959A95E1F7260F372F311DD1
:10252000D9012C9130E0B62DB77002C035952795B2
:10253000BA95E2F7822D20FF10C08A298083B394D8
:10254000E8E0BE1201C0B12CFFEF6F1A7F0A4F5FA7
:102550005F4F0417150741F657CB8095A822A0823C
:10256000EECFC801019763E070E08D37910550F41C
:1025700020913407C301800F911F2817190628F4F2
:1025800062E070E084E090E0E1CAC801880F991F22
:1025900003969093450580934405ECE5F7E0DF0151
:1025A00011969D012C5537402817390710F41C92BD
:1025B000F7CF94E090935D07835080935E07660C9D
:1025C000771CA0913207B0913307A60DB71D0150BB
:1025D000110932960F3F100709F416CB8C91119612
:1025E0009C911197129691838283F1CF01153FEF51
:1025F000130729F063E070E00115110549F480919B
:1026000031078150990B8615970528F462E070E038
:1026100085E090E09BCA41E001151F4F09F040E0C2
:1026200060E0C3010E943E0AEFCA9801E3E03695DC
:102630002795EA95E1F7822FA80147705527452B8A
:1026400011F081E0820F980121503109203B374081
:1026500020F490916207981729F063E070E08FE012
:1026600090E074CA20913107C301800F911F281791
:10267000190618F462E070E0F2CF86E090E09093E3
:102680004505809344058FE080935D0770925E0757
:1026900060925F071093600700936107F12CE12CB3
:1026A000D12CF70173E0F695E7957A95E1F7E45AB6
:1026B000F84F478150E00D2C02C0559547950A947C
:1026C000E2F7417060E0C3018E0D9F1D0E943E0A3B
:1026D000D39478E0D71201C0D12C8FEFE81AF80A12
:1026E0000E151F05F1F6009144051091450578017E
:1026F00022E0E20EF11CF0924505E09244050E94B2
:10270000040AF801E45AF84F9083818380914A05C6
:1027100087FD11C061E00E941C02809146059091E6
:1027200047058230910538F0880F991F880F991F4F
:1027300005970197F1F780914B0590914C05DC01CD
:10274000ED91FC910280F381E02DA7016CE577E02B
:10275000199580914B0590914C05DC01ED91FC9110
:102760000680F781E02D19958091460590914705E7
:102770008230910538F0880F991F880F991F0597AF
:102780000197F1F780914A0587FD4DC860E00E94EE
:102790001C0249C8811165C0C0906107D0906207D2
:1027A0000E941F04009709F45CC0E816F90608F0BF
:1027B00058C0DC24CD24DC24C816D90608F051C04A
:1027C000CE14DF0408F44DC0570167E6862E67E09B
:1027D000962E10E000E0B50180E00E94F1089C0117
:1027E000200F311F255F3F4F2130314098F4892B56
:1027F00059F0A401B50180E00E940309009721F07F
:10280000880E991E080F191FC50101967501C8167B
:10281000D90628F5C8010B96909345058093440589
:1028200083E480935D078EE780935E07F0925F07F5
:10283000E0926007809142079091430720914407FE
:1028400030914507309361072093620790936307A7
:10285000809364071093650700936607D5C95C01F0
:10286000BACF83E090E0909345058093440583E4DC
:1028700080935D0781E876C0B5E16B16710408F0BE
:1028800068C0C301880F991F860D971DA0E6B7E0A9
:102890008E010F5F1F4FF8019F01201B310B28177E
:1028A000390718F42D912193F7CFB12CA12C512C7D
:1028B000D12CC12C4BE0E42EF12C6A147B0431F1B5
:1028C000F801408081808281982C882EB401842D6B
:1028D0000E94F108009791F08E0D9F1D813091406C
:1028E000A8F4A701445A584FB401842D0E9403094B
:1028F000009721F0E80EF91EC80ED91E0D5F1F4F7C
:102900005A2C95012F5F3F4F5901D7CFF0924505C3
:10291000E092440584E480935D078EE780935E0730
:1029200010925F0750926007809142079091430791
:102930002091440730914507309361072093620747
:102940009093630780936407D0926507C0926607EF
:102950005BC983E090E09093450580934405D09255
:102960005D0782E880935E074FC90091620710916E
:102970006307102701271027093F110548F083E05E
:1029800090E09093450580934405D0925D0772CF07
:10299000B7010E94C208282FCB01009751F12531C1
:1029A00040F530E049E0429FF001439FF00D1124D3
:1029B000E25FFB4FCC20C1F020852223E1F02017FD
:1029C000110609F0C0F40190F081E02D64E677E093
:1029D00019958EE723E030E03093450520934405B8
:1029E00092E490935D07BECF0280F381E02D1995AC
:1029F000F0CF81E8EFCF82E8EDCFE45AF84F2DEA2F
:102A00002083FC01E45AF84F2EED24830596BFC8BD
:102A10000F931F93CF93DF938B01FC01FE5F208107
:102A2000222351F19C012F5F3D4F22503E4FD9018F
:102A30002D913C912F37310510F02EE730E0622FB9
:102A4000E80128834081442311F08F5F9D4FFC01F2
:102A5000D80180E0861790F49081329611969C936D
:102A60001197AF0142505109EA01998112969C9346
:102A700012978F5F1296EECF9C01D7CF220F331F94
:102A80002F5F3F4F2D3F310579F04DEF50E0421B56
:102A9000530B70E060E0C801820F931FDF91CF916C
:102AA0001F910F910C94B71FDF91CF911F910F9140
:102AB00008950C94251F0C94251F0C94251F0F932B
:102AC0001F93CF93DF93CDB7DEB7C150D1400FB680
:102AD000F894DEBF0FBECDBF8C01FB0140814F37A4
:102AE00008F04EE750E0C050DF4F59834883C05094
:102AF000D1406F5F7F4FCE0101960E94AE1FC05044
:102B0000DF4FE881F981C050D14081E090E08C0F27
:102B10009D1FE80FF91F108281E091E0FE013196C0
:102B2000D80101900D920197E1F7CF5FDE4F0FB60C
:102B3000F894DEBF0FBECDBFDF91CF911F910F91F3
:102B400008950F931F93CF93DF93CDB7DEB7C15096
:102B5000D1400FB6F894DEBF0FBECDBF8C01FB0194
:102B600040814F3708F04EE750E0C050DF4F5983A7
:102B70004883C050D1406F5F7F4FCE0101960E94C5
:102B8000AE1FC050DF4FE881F981C050D14081E0D5
:102B900090E08C0F9D1FE80FF91F1082F801EF5F86
:102BA000FE4F81E08083D801AE5FBE4F81E091E0AF
:102BB000FE01319601900D920197E1F7CF5FDE4F54
:102BC0000FB6F894DEBF0FBECDBFDF91CF911F913E
:102BD0000F910895FF920F931F93CF93DF938B0173
:102BE000FC01EF5FFE4F2081222319F19C012E5F33
:102BF0003E4F21503F4FD901CD91DC91CF37D105C8
:102C000010F0CEE7D0E0FC2ED801CC93C11113C058
:102C10004EE750E04C1B5D0BCE01019670E060E08A
:102C2000800F911FDF91CF911F910F91FF900C9416
:102C3000B71F9C01DECF2081BC01222311F06E5F03
:102C40007E4FAE01C80101960E94AE1F8EE7F812BA
:102C5000DFCFDF91CF911F910F91FF9008951F92C9
:102C60000F920FB60F9211242F933F938F939F9340
:102C7000AF93BF938091540790915507A091560749
:102C8000B09157073091530723E0230F2D3758F5A4
:102C90000196A11DB11D2093530780935407909373
:102CA0005507A0935607B093570780915807909106
:102CB0005907A0915A07B0915B070196A11DB11D5C
:102CC0008093580790935907A0935A07B0935B07D6
:102CD000BF91AF919F918F913F912F910F900FBE18
:102CE0000F901F90189526E8230F0296A11DB11D85
:102CF000D2CF1F920F920FB60F9211240BB60F92E4
:102D00002F933F934F935F936F937F938F939F93F3
:102D1000AF93BF93EF93FF938EE598E00E94470334
:102D2000FF91EF91BF91AF919F918F917F916F91A3
:102D30005F914F913F912F910F900BBE0F900FBE5F
:102D40000F901F9018951F920F920FB60F9211249B
:102D50000BB60F922F938F939F93EF93FF93E09176
:102D60006E08F0916F088081E0917408F091750809
:102D700082FD1DC09081809177088F5F8F732091B5
:102D80007808821741F0E0917708F0E0E25AF74FB7
:102D9000958F80937708FF91EF919F918F912F915D
:102DA0000F900BBE0F900FBE0F901F901895808153
:102DB000F2CFCF93DF93EEE5F8E01382128288EE34
:102DC00093E0A0E0B0E084839583A683B7838FEC83
:102DD00094E09183808385EC90E09587848784ECF0
:102DE00090E09787868780EC90E0918B808B81ECD8
:102DF00090E0938B828B82EC90E0958B848B86ECB9
:102E000090E0978B868B118E128E138E148EEBEFC3
:102E1000F8E08DEF94E09183808389EE94E09383D2
:102E2000828314821582168217821086118612867A
:102E300013861486168615861786118A108A138AB9
:102E4000128A148A168A158A178A108E118E128E8B
:102E5000138E148E158E168E178E10A211A212A22A
:102E600013A214A215A216A217A210A611A612A6AA
:102E700013A614A615A616A617A610AA11AA12AA7A
:102E800013AA14AA15AA16AA17AA10AE11AE12AE4A
:102E900021EE34E034AF23AF15AE16AE17AE10926C
:102EA0003B0910923C0910923D0910923E09109284
:102EB0003F091092400981E0809341091092420934
:102EC0001092430910924409109245091092460944
:102ED00010924809109247091092490910924B0923
:102EE00010924A0930934D0920934C0910924E09D3
:102EF00010924F09109250091092510910925209E4
:102F000010925309109254091092550910925609C3
:102F100080935709109258091092590910925A0932
:102F200010925B0910925C0910925E0910925D0983
:102F300010925F0910926109109260091092620963
:102F40001092630910926409109265091092660943
:102F500010926709109268091092690910926A0923
:102F600010926B0910926C0910926D0980936E0992
:102F700010926F0910927009C3E8D9E02DEF38E084
:102F800039832883A1E7B9E020E335E011963C932B
:102F90002E93E3E7F9E010829DE2918391E392831F
:102FA0008383148215821682178241E050E060E02C
:102FB00070E040937B0950937C0960937D09709386
:102FC0007E09D0938009C0937F0981E090E09093BF
:102FD00082098093810926E335E0309386092093A6
:102FE00085092BE335E03093880920938709B09356
:102FF0008A09A093890990938C0980938B09DF91AA
:10300000CF910895CF93DF93CDB7DEB764970FB616
:10301000F894DEBF0FBECDBF789484B5826084BDC6
:1030200084B5816084BD85B5826085BD85B58160CC
:1030300085BD80916E00816080936E00109281004A
:103040008091810082608093810080918100816005
:1030500080938100809180008160809380008091C6
:10306000B10084608093B1008091B0008160809352
:10307000B0008091910082608093910080919100D6
:103080008160809391008091900081608093900096
:103090008091A10082608093A1008091A100816055
:1030A0008093A1008091A00081608093A000809116
:1030B00021018260809321018091210181608093B0
:1030C00021018091200181608093200180917A000C
:1030D000846080937A0080917A00826080937A0085
:1030E00080917A00816080937A0080917A00806874
:1030F00080937A001092C10020918B0930918C0945
:103100003A8B298B8091890990918A099C8B8B8BB2
:103110009A8389831A861986312C212C712C812C53
:10312000912C1B821C82612C512C412CA989BA89BB
:10313000E985FA85AE17BF0709F490C0A981BA8165
:1031400050968D919C915197280E391E1296DC90C5
:1031500012971396EC9013971496FC90149715966B
:103160000C91159716961C9116971796BC91E981AC
:10317000FA81C084B1842D2D3E2D4F2D502F612F0B
:103180007B2F8C2D9B2DA0E00E947D1E09F054F416
:10319000D12C6DE2E62E71E3F72E01E010E0B0E0F5
:1031A000C12CB12CDD82EF82FB860C871D87BE8788
:1031B000CF86B88A272D382D492D5B816C81762DDD
:1031C000852D942DA0E00E947D1E51F1AD80BF8021
:1031D000CB84DC84ED84FE840F851889272D382D5F
:1031E000492D5B816C81762D852D942D0E94DF1DEC
:1031F000D22EE32EF42E052F162FB72FF82FE92FFE
:103200007A2C8B2C9C2C2C852B833D853C836E84C7
:103210005F8448882D2D3E2DA0E00E947D1EA9F4DC
:1032200089859A8501969A878987A981BA8152965C
:10323000BA83A9837D808F809B84BC85BB83ED8509
:10324000EC836E845F84488871CFDD82EF82FB86D9
:103250000C871D87BE87FF87E88BB8CF272D382DB9
:10326000492D5B816C81762D852D942DA0E00E94E7
:103270007D1E59F4712C4DE2842E51E3952EF1E020
:10328000FB831C82612C512C412C70920002809295
:103290000102909202022B81209303023C81309321
:1032A0000402609205025092060240920702211425
:1032B00080E4380608F0A3C0C101880F991F009769
:1032C00009F4A0C00E94891E9E838D8390934107BC
:1032D00080934007211490E2390608F096C0C1019E
:1032E000880F991F880F991F009709F491C00E94B9
:1032F000891E98878F839093470780934607309263
:103300004907209248071A821982312C212CA9855D
:10331000BA85E981FA81AE17BF0709F489C0AB8984
:10332000BC891296DC9012971396EC901397149622
:10333000FC90149715960C91159716961C9116975C
:103340001796BC91EB89FC89C084B1842D2D3E2D4C
:103350004F2D502F612F7B2F8C2D9B2DA0E00E9495
:103360007D1E09F044F4272D382D492D5B816C8199
:10337000762D852D942DA72CB82CC92CDB80EC80C4
:10338000F62C052D142D0E94E11DB22EA32E742FB4
:10339000652FAB89BC8950964D915C918A01000FD5
:1033A000111F7101EE0CFF1C6101CC0CDD1CCC0C5B
:1033B000DD1C90E080E00817190769F1AB89BC8932
:1033C0001E96ED91FC91E80FF91F20813181F701E4
:1033D000E80FF91FAD81BE81EA0FFB1F3183208307
:1033E000FC01EE0FFF1FEC0DFD1D2F813885E20F54
:1033F000F31FB082A182728363830296DCCF8FEFCA
:103400009FEF60CF81E090E05DCF8FEF9FEF6FCFB8
:1034100081E090E06CCF240E351E89819A8101965F
:103420009A838983AB89BC895296BC8BAB8B6FCF57
:10343000E0916E08F0916F0882E08083E0916A0865
:10344000F0916B081082E0916C08F0916D0880E1BA
:10345000808310927608E0917208F091730886E0FC
:103460008083E0917008F091710880818061808391
:10347000E0917008F0917108808188608083E0910C
:103480007008F0917108808180688083E0917008F5
:10349000F091710880818F7D80838EE598E0909314
:1034A0004C0580934B058FEF80934A058EEE92E09A
:1034B000909349058093480581E49AE090934705ED
:1034C0008093460581E08093250784E38093280755
:1034D00084E180932B0780932E0788E38093310744
:1034E00090E2909334078093370787E090E00E9442
:1034F000891E9093300780932F07009709F451C0DD
:1035000017E0FC01212F11922A95E9F788E690E057
:103510000E94891E9093270780932607009709F43D
:1035200040C028E6DC011D922A95E9F780E590E08D
:103530000E94891E90932A0780932907009789F19A
:1035400020E5FC0111922A95E9F780EA90E00E94BB
:10355000891E90932D0780932C07009711F120EA84
:10356000DC011D922A95E9F787E090E00E94891E10
:103570009093360780933507009799F0FC011192DC
:103580001A95E9F780E490E00E94891E9093330732
:1035900080933207009729F020E4DC011D922A95E0
:1035A000E9F710E000E0C801880F991FFC01EB5417
:1035B000F94F7F0180819181892B49F481E090E06E
:1035C0000E94891ED7018D939C93FC0110820F5F8E
:1035D0001F4F0833110539F700912607109127076F
:1035E000E5E7F6E090E080E021913191232B39F47A
:1035F000DF0112979801280F391F2D933C930296F3
:103600008034910589F7D12CC12CC601880F991FF0
:103610009C012B5F394F7901D9018D919C91892BA8
:1036200049F481E090E00E94891EF7019183808334
:10363000DC011C92BFEFCB1ADB0AE8E3CE16D10403
:1036400021F72091320730913307E5ECF5E090E067
:1036500080E041915191452B39F4DF011297A90186
:10366000480F591F4D935C9302968034910589F75A
:10367000EDE9F5E090E080E0005C1F4F2191319191
:10368000232B39F4DF0112979801280F391F2D934E
:103690003C9302968832910589F740912907509111
:1036A0002A07E5E7F5E090E080E021913191232BB6
:1036B00059F4DF0112979C01220F331F220F331F91
:1036C000240F351F2D933C9301968431910569F7A2
:1036D00040912C0750912D07EDE4F5E090E080E05B
:1036E00021913191232B61F4DF0112979C0163E05A
:1036F000220F331F6A95E1F7240F351F2D933C935A
:1037000001968431910561F748EEA42E53E0B52E61
:10371000C12CD12CE12CF12C00E010E0272D382D0C
:10372000492D5B816C81762D852D942D0E94E11DA4
:1037300020934B0730934C0740934D0750934E070F
:103740000E94A80260934F0770935007809351071F
:1037500090935207992493940E94A80200914F07D6
:10376000109150072091510730915207601B710B47
:10377000820B930B00914B0710914C0720914D0742
:1037800030914E07601771078207930708F4C5C090
:103790001A821982809148079091490729813A81BC
:1037A00028173907D8F5E0914607F0914707C90176
:1037B000880F991F880F991FE80FF91F2081318109
:1037C00042815381211531054105510571F0609108
:1037D00042077091430780914407909145070E94EA
:1037E000A61D672B682B692B99F4E0914007F09197
:1037F000410789819A81880F991FE80FF91F8081FD
:103800009181DC01ED91FC910480F581E02D199509
:10381000E981FA813196FA83E983BCCF809142072E
:1038200090914307A0914407B09145070196A11DCF
:10383000B11D8093420790934307A0934407B09330
:103840004507209138073091390740913A07509148
:103850003B0760913C0770913D0780913E07909136
:103860003F07A0900002B0900102C0900202D090E9
:103870000302E0900402F09005020091060210910C
:1038800007020E94741E2093380730933907409333
:103890003A0750933B0760933C0770933D07809332
:1038A0003E0790933F070E946A0A80914A07811160
:1038B00018C090924A070E94A80200914B071091ED
:1038C0004C0720914D0730914E07601B710B820B06
:1038D000930B60934F077093500780935107909319
:1038E000520780914F0790915007A0915107B091D6
:1038F000520740914B0750914C0760914D077091D2
:103900004E07840F951FA61FB71F80934F079093F4
:103910005007A0935107B09352070E94A80200914C
:103920004F07109150072091510730915207601BAB
:10393000710B820B930B603177428105910510F07A
:103940000E946A0A88950E94D60306CF0E94BA1C7C
:103950000C946C1D0E94651D58F00E945E1D40F085
:1039600029F45F3F29F00C94551D51110C94A01DB2
:103970000C945B1D0E947D1D68F39923B1F35523C0
:1039800091F3951B550BBB27AA2762177307840772
:1039900038F09F5F5F4F220F331F441FAA1FA9F308
:1039A00035D00E2E3AF0E0E832D091505040E695F6
:1039B000001CCAF72BD0FE2F29D0660F771F881F57
:1039C000BB1F261737074807AB07B0E809F0BB0B4A
:1039D000802DBF01FF2793585F4F3AF09E3F51055E
:1039E00078F00C94551D0C94A01D5F3FE4F3983EB5
:1039F000D4F3869577956795B795F7959F5FC9F747
:103A0000880F911D9695879597F90895E1E0660FC7
:103A1000771F881FBB1F621773078407BA0720F040
:103A2000621B730B840BBA0BEE1F88F7E0950895A9
:103A3000E89409C097FB3EF4909580957095619548
:103A40007F4F8F4F9F4F9923A9F0F92F96E9BB27FE
:103A50009395F695879577956795B795F111F8CF7A
:103A6000FAF4BB0F11F460FF1BC06F5F7F4F8F4FE5
:103A70009F4F16C0882311F096E911C0772321F0DB
:103A80009EE8872F762F05C0662371F096E8862F73
:103A900070E060E02AF09A95660F771F881FDAF7CA
:103AA000880F9695879597F9089597F99F6780E80D
:103AB00070E060E008959FEF80EC089500240A9480
:103AC0001616170618060906089500240A941216F9
:103AD0001306140605060895092E0394000C11F42C
:103AE000882352F0BB0F40F4BF2B11F460FF04C0D9
:103AF0006F5F7F4F8F4F9F4F089557FD9058440F32
:103B0000551F59F05F3F71F04795880F97FB991F3C
:103B100061F09F3F79F087950895121613061406F9
:103B2000551FF2CF4695F1DF08C016161706180686
:103B3000991FF1CF86957105610508940895E89461
:103B4000BB2766277727CB0197F90895A1E21A2EA4
:103B5000AA1BBB1BFD010DC0AA1FBB1FEE1FFF1F31
:103B6000A217B307E407F50720F0A21BB30BE40B81
:103B7000F50B661F771F881F991F1A9469F76095C8
:103B80007095809590959B01AC01BD01CF01089582
:103B9000EE0FFF1F881F8BBF0790F691E02D199441
:103BA000A29FB001B39FC001A39F700D811D11247E
:103BB000911DB29F700D811D1124911D089568946F
:103BC00001C0E8948F929F92CF93DF930E94ED1DE6
:103BD000DF91CF919F908F90089588249924F401CC
:103BE000E401B0E49F93AA279A158B049C04ED0589
:103BF000FE05CF05D007A10798F4AD2FDC2FCF2FFE
:103C0000FE2FE92D982C892E982F872F762F652F40
:103C1000542F432F322F2227B85031F7BF9127C09E
:103C20001B2EBF91BB27220F331F441F551F661F3A
:103C3000771F881F991F881C991CEE1FFF1FCC1F20
:103C4000DD1FAA1FBB1F8A149B04EC05FD05CE05D2
:103C5000DF05A007B10748F08A189B08EC09FD09A9
:103C6000CE09DF09A00BB10B21601A94E1F62EF406
:103C70009401AF01BE01CD01000C0895002E083063
:103C800090F0982F872F762F652F542F432F322FA8
:103C900022270850F4CF220F331F441F551F661FE1
:103CA000771F881F991F0A95B2F7002D089597FD79
:103CB0001094002E083098F00850232F342F452FF1
:103CC000562F672F782F892F912DF4CF1594979524
:103CD00087957795679557954795379527950A95D1
:103CE000AAF71124002D08952A0D3B1D4C1D5D1DC2
:103CF0006E1D7F1D801F911F08950024A7FD009455
:103D00002A173005400550056005700580059005AF
:103D100008950F931F93CF93DF938230910510F492
:103D200082E090E0E0918F09F091900930E020E08E
:103D3000B0E0A0E0309799F42115310509F44AC0AC
:103D4000281B390B24303105D8F58A819B816115F8
:103D5000710589F1FB0193838283FE0111C04081CB
:103D600051810281138148175907E0F0481759071C
:103D700099F4109761F012960C93129713961C9376
:103D80003296CF01DF91CF911F910F91089500934B
:103D90008F0910939009F4CF2115310551F0421786
:103DA000530738F0A901DB019A01BD01DF01F801D9
:103DB000C1CFEF01F9CF9093900980938F09CDCFB8
:103DC000FE01E20FF31F8193919322503109398351
:103DD0002883D7CF20918D0930918E09232B41F470
:103DE00020910A0230910B0230938E0920938D09A5
:103DF00020910802309109022115310541F42DB7B7
:103E00003EB740910C0250910D02241B350BE091FE
:103E10008D09F0918E09E217F307A0F42E1B3F0BDA
:103E20002817390778F0AC014E5F5F4F241735072C
:103E300048F04E0F5F1F50938E0940938D09819378
:103E400091939FCFF0E0E0E09CCFCF93DF9300977A
:103E5000E9F0FC01329713821282A0918F09B09190
:103E60009009ED0130E020E01097A1F4208131812C
:103E7000820F931F20918D0930918E0928173907E1
:103E800009F061C0F0938E09E0938D09DF91CF9125
:103E90000895EA01CE17DF07E8F54A815B819E01AC
:103EA00041155105B1F7E901FB83EA834991599125
:103EB000C40FD51FEC17FD0761F480819181029634
:103EC000840F951FE90199838883828193819B8365
:103ED0008A83F0E0E0E012968D919C911397009711
:103EE000B9F52D913C911197CD010296820F931F48
:103EF00020918D0930918E092817390739F63097AE
:103F000051F51092900910928F09B0938E09A093E9
:103F10008D09BCCFD383C28340815181840F951F0B
:103F2000C817D90761F44E5F5F4F88819981480FA8
:103F3000591F518340838A819B81938382832115FA
:103F4000310509F0B0CFF0939009E0938F099ECF2F
:103F5000FD01DC01C0CF13821282D7CFFB01DC014F
:103F600002C001900D9241505040D8F70895DC01F5
:103F700001C06D9341505040E0F70895F894FFCF91
:103F8000002D31010000000000009109800000C0F8
:103F9000C101C30302C2C60607C705C5C404CC0CD1
:103FA0000DCD0FCFCE0E0ACACB0BC90908C8D81841
:103FB00019D91BDBDA1A1EDEDF1FDD1D1CDC14D451
:103FC000D515D71716D6D21213D311D1D010F03081
:103FD00031F133F3F23236F6F737F53534F43CFC91
:103FE000FD3DFF3F3EFEFA3A3BFB39F9F83828E841
:103FF000E929EB2B2AEAEE2E2FEF2DEDEC2CE42411
:1040000025E527E7E62622E2E323E12120E0A06080
:1040100061A163A3A26266A6A767A56564A46CAC50
:10402000AD6DAF6F6EAEAA6A6BAB69A9A86878B8C0
:10403000B979BB7B7ABABE7E7FBF7DBDBC7CB474D0
:1040400075B577B7B67672B2B373B17170B0509080
:1040500091519353529296565797559594549C5C10
:104060005D9D5F9F9E5E5A9A9B5B995958988848C0
:1040700049894B8B8A4A4E8E8F4F8D4D4C8C448490
:10408000854587474686824243834181804000C1FF
:10409000814001C0804101C0804100C1814001C018
:1040A000804100C1814000C1814001C0804101C008
:1040B000804100C1814000C1814001C0804100C1F8
:1040C000814001C0804101C0804100C1814001C0E8
:1040D000804100C1814000C1814001C0804100C1D8
:1040E000814001C0804101C0804100C1814000C1C8
:1040F000814001C0804101C0804100C1814001C0B8
:10410000804100C1814000C1814001C0804101C0A7
:10411000804100C1814000C1814001C0804100C197
:10412000814001C0804101C0804100C1814000C187
:10413000814001C0804101C0804100C1814001C077
:10414000804100C1814000C1814001C0804100C167
:10415000814001C0804101C0804100C1814001C057
:10416000804100C1814000C1814001C0804101C047
:10417000804100C1814000C1814001C0804100C137
:10418000814001C0804101C0804100C18140F809E7
:104190008506B908EB0901A906A6069C0693060147
:1041A0008B0688067B0672060167063E065A064F96
:1041B000060244064106310626060211065D04FE8B
:1041C00005EF0504DA05D705C405B505048B050C14
:1041D000055F053C050812050F05E004BD0408A8AD
:1041E00004A5049204780404630460044A043004BF
:1041F000048B0688067B06720601440641063106DA
:10420000260602DA05D705C405B5050412050F0513
:10421000E004BD04088B050C055F053C05088B0513
:104220000C055F053C05088B050C055F053C050882
:104230008B050C055F053C0508A115E609EA155F2D
:10424000157F2A09260908158909FD000000006963
:1042500003D3020003B60331030F0323030000005E
:10426000001A045B15000000000704591501071728
:10427000041404130413040804000000001B045D6C
:10428000151C04D002CD02434F4E46494730006210
:1042900030663434646630653836646232313233C5
:1042A0006236373237373839623136326336660034
:1042B0005441534B30005245533000504C430000A2
:00000001FF
